{
  "_format": "hh3-artifact-1",
  "contractName": "TradeNestFactory",
  "sourceName": "contracts/TradeNestFactory.sol",
  "abi": [
    {
      "inputs": [
        {
          "internalType": "address",
          "name": "_bot",
          "type": "address"
        }
      ],
      "stateMutability": "nonpayable",
      "type": "constructor"
    },
    {
      "anonymous": false,
      "inputs": [
        {
          "indexed": true,
          "internalType": "address",
          "name": "escrowAddress",
          "type": "address"
        },
        {
          "indexed": true,
          "internalType": "address",
          "name": "buyer",
          "type": "address"
        },
        {
          "indexed": true,
          "internalType": "address",
          "name": "seller",
          "type": "address"
        }
      ],
      "name": "EscrowCreated",
      "type": "event"
    },
    {
      "inputs": [],
      "name": "bot",
      "outputs": [
        {
          "internalType": "address",
          "name": "",
          "type": "address"
        }
      ],
      "stateMutability": "view",
      "type": "function"
    },
    {
      "inputs": [
        {
          "internalType": "address",
          "name": "_buyer",
          "type": "address"
        },
        {
          "internalType": "address",
          "name": "_seller",
          "type": "address"
        }
      ],
      "name": "createEscrow",
      "outputs": [
        {
          "internalType": "address",
          "name": "",
          "type": "address"
        }
      ],
      "stateMutability": "nonpayable",
      "type": "function"
    },
    {
      "inputs": [
        {
          "internalType": "uint256",
          "name": "",
          "type": "uint256"
        }
      ],
      "name": "escrows",
      "outputs": [
        {
          "internalType": "contract TradeNestEscrow",
          "name": "",
          "type": "address"
        }
      ],
      "stateMutability": "view",
      "type": "function"
    },
    {
      "inputs": [],
      "name": "getAllEscrows",
      "outputs": [
        {
          "internalType": "contract TradeNestEscrow[]",
          "name": "",
          "type": "address[]"
        }
      ],
      "stateMutability": "view",
      "type": "function"
    },
    {
      "inputs": [
        {
          "internalType": "uint256",
          "name": "index",
          "type": "uint256"
        }
      ],
      "name": "getEscrow",
      "outputs": [
        {
          "internalType": "contract TradeNestEscrow",
          "name": "",
          "type": "address"
        }
      ],
      "stateMutability": "view",
      "type": "function"
    },
    {
      "inputs": [],
      "name": "getEscrowsCount",
      "outputs": [
        {
          "internalType": "uint256",
          "name": "",
          "type": "uint256"
        }
      ],
      "stateMutability": "view",
      "type": "function"
    }
  ],
  "bytecode": "0x6080604052348015600e575f5ffd5b50604051610dd4380380610dd4833981016040819052602b9160a8565b6001600160a01b03811660845760405162461bcd60e51b815260206004820152601360248201527f696e76616c696420626f74206164647265737300000000000000000000000000604482015260640160405180910390fd5b600180546001600160a01b0319166001600160a01b039290921691909117905560d3565b5f6020828403121560b7575f5ffd5b81516001600160a01b038116811460cc575f5ffd5b9392505050565b610cf4806100e05f395ff3fe608060405234801561000f575f5ffd5b5060043610610060575f3560e01c8063012f52ee1461006457806310814c371461009457806349820f2f146100a75780637d19e596146100b7578063834cc6fc146100ca5780639a6ac36f146100dd575b5f5ffd5b61007761007236600461039b565b6100f2565b6040516001600160a01b0390911681526020015b60405180910390f35b600154610077906001600160a01b031681565b5f5460405190815260200161008b565b6100776100c536600461039b565b610119565b6100776100d83660046103cd565b610190565b6100e561032f565b60405161008b91906103fe565b5f8181548110610100575f80fd5b5f918252602090912001546001600160a01b0316905081565b5f805482106101645760405162461bcd60e51b8152602060048201526012602482015271696e646578206f7574206f662072616e676560701b60448201526064015b60405180910390fd5b5f828154811061017657610176610449565b5f918252602090912001546001600160a01b031692915050565b5f6001600160a01b038316158015906101b157506001600160a01b03821615155b6101ef5760405162461bcd60e51b815260206004820152600f60248201526e696e76616c6964206164647265737360881b604482015260640161015b565b816001600160a01b0316836001600160a01b0316036102505760405162461bcd60e51b815260206004820152601f60248201527f627579657220616e642073656c6c65722063616e6e6f742062652073616d6500604482015260640161015b565b6001546040515f91859185916001600160a01b03169061026f9061038e565b6001600160a01b03938416815291831660208301529091166040820152606001604051809103905ff0801580156102a8573d5f5f3e3d5ffd5b505f80546001810182558180527f290decd9548b62a8d60345a988386fc84ba6bc95484008f6362f93160ef3e5630180546001600160a01b0319166001600160a01b03848116918217909255604051939450868216939188169290917f4743c0c2884de4f19f280dbd2cc93bc24491cdf876ed107046fe8194183c09e99190a49392505050565b60605f80548060200260200160405190810160405280929190818152602001828054801561038457602002820191905f5260205f20905b81546001600160a01b03168152600190910190602001808311610366575b5050505050905090565b6108618061045e83390190565b5f602082840312156103ab575f5ffd5b5035919050565b80356001600160a01b03811681146103c8575f5ffd5b919050565b5f5f604083850312156103de575f5ffd5b6103e7836103b2565b91506103f5602084016103b2565b90509250929050565b602080825282518282018190525f918401906040840190835b8181101561043e5783516001600160a01b0316835260209384019390920191600101610417565b509095945050505050565b634e487b7160e01b5f52603260045260245ffdfe608060405262015180600655348015610016575f5ffd5b506040516108613803806108618339810160408190526100359161010c565b816001600160a01b0316836001600160a01b0316036100a65760405162461bcd60e51b815260206004820152602360248201527f627579657220616e642073656c6c65722063616e6e6f74206265207468652073604482015262616d6560e81b606482015260840160405180910390fd5b5f80546001600160a01b039485166001600160a01b0319918216179091556001805493851693821693909317909255600280549190931691161790556004805460ff1916905561014c565b80516001600160a01b0381168114610107575f5ffd5b919050565b5f5f5f6060848603121561011e575f5ffd5b610127846100f1565b9250610135602085016100f1565b9150610143604085016100f1565b90509250925092565b610708806101595f395ff3fe608060405260043610610099575f3560e01c8063200d2ed211610062578063200d2ed2146101455780633a10ec1a1461016b578063597825d0146101805780637150d8ae14610194578063aa8c217c146101b2578063b60d4288146101c7575f5ffd5b806259cfe81461009d57806308551a53146100b35780630b13618a146100ef57806310814c37146101035780631558ea4c14610122575b5f5ffd5b3480156100a8575f5ffd5b506100b16101cf565b005b3480156100be575f5ffd5b506001546100d2906001600160a01b031681565b6040516001600160a01b0390911681526020015b60405180910390f35b3480156100fa575f5ffd5b506100b16102c7565b34801561010e575f5ffd5b506002546100d2906001600160a01b031681565b34801561012d575f5ffd5b5061013760055481565b6040519081526020016100e6565b348015610150575f5ffd5b5060045461015e9060ff1681565b6040516100e69190610657565b348015610176575f5ffd5b5061013760065481565b34801561018b575f5ffd5b506100b1610394565b34801561019f575f5ffd5b505f546100d2906001600160a01b031681565b3480156101bd575f5ffd5b5061013760035481565b6100b161046e565b6002546001600160a01b031633146102025760405162461bcd60e51b81526004016101f99061067d565b60405180910390fd5b600260045460ff16600581111561021b5761021b610643565b146102685760405162461bcd60e51b815260206004820152601e60248201527f7472616465206e6f74206174202764656c69766572656427207374617465000060448201526064016101f9565b60065460055461027891906106ad565b4210156102bd5760405162461bcd60e51b81526020600482015260136024820152721d1a5b595bdd5d081b9bdd081c995858da1959606a1b60448201526064016101f9565b6102c56105b8565b565b6002546001600160a01b031633146102f15760405162461bcd60e51b81526004016101f99061067d565b600260045460ff16600581111561030a5761030a610643565b146103575760405162461bcd60e51b815260206004820152601e60248201527f7472616465206e6f74206174202764656c69766572656427207374617465000060448201526064016101f9565b5f80546040516001600160a01b03909116917f5d91bd0cecc45fef102af61de92c5462fadc884a5ce9d21c15e8a85198f2349e91a26102c56105b8565b6002546001600160a01b031633146103be5760405162461bcd60e51b81526004016101f99061067d565b600160045460ff1660058111156103d7576103d7610643565b146104245760405162461bcd60e51b815260206004820152601b60248201527f7472616465206e6f74206174202766756e64656427207374617465000000000060448201526064016101f9565b6004805460ff19166002179055426005556001546040516001600160a01b03909116907ffedf826d9b4a1fe2a221dc900337fc72788ddb41c7ae6600c110ca2858365da4905f90a2565b5f546001600160a01b031633146104bd5760405162461bcd60e51b81526020600482015260136024820152721bdb9b1e48189d5e595c8818d85b88199d5b99606a1b60448201526064016101f9565b5f60045460ff1660058111156104d5576104d5610643565b146105225760405162461bcd60e51b815260206004820152601c60248201527f7472616465206e6f74206174202763726561746564272073746174650000000060448201526064016101f9565b5f34116105635760405162461bcd60e51b815260206004820152600f60248201526e6d7573742073656e642066756e647360881b60448201526064016101f9565b3460038190556004805460ff191660011790555f546040519182526001600160a01b0316907f5af8184bef8e4b45eb9f6ed7734d04da38ced226495548f46e0c8ff8d7d9a524906020015b60405180910390a2565b6004805460ff1916600390811790915560015490546040516001600160a01b03909216916108fc82150291905f818181858888f19350505050158015610600573d5f5f3e3d5ffd5b506001546003546040519081526001600160a01b03909116907fb21fb52d5749b80f3182f8c6992236b5e5576681880914484d7f4c9b062e619e906020016105ae565b634e487b7160e01b5f52602160045260245ffd5b602081016006831061067757634e487b7160e01b5f52602160045260245ffd5b91905290565b6020808252601690820152756f6e6c7920626f742063616e2063616c6c207468697360501b604082015260600190565b808201808211156106cc57634e487b7160e01b5f52601160045260245ffd5b9291505056fea264697066735822122042fb2442dc46a7da13b58d0711464ce5e479fb61fcb169e27fd8490553cc574f64736f6c634300081c0033a26469706673582212208abb8c177d4a1a62e00838813dd30388bcc629aefe9ee2163f4ffb53fe7a404b64736f6c634300081c0033",
  "linkReferences": {},
  "deployedLinkReferences": {},
  "immutableReferences": {},
  "inputSourceName": "project/contracts/TradeNestFactory.sol",
  "buildInfoId": "solc-0_8_28-c40226fce6bd3187b96818a71a167dffe036f5bb"
}